:020000040800F2
:2000000000200020C50A0008A50A0008AD0A00080000000000000000000000000000000053
:20002000000000000000000000000000B50A00080000000000000000B70A0008B90A000865
:20004000150B0008150B0008150B0008150B0008150B0008150B0008150B0008150B000860
:2000600000000000150B0008150B0008150B0008150B0008150B0008150B0008150B000868
:20008000150B0008150B0008150B0008150B000800000000150B0008150B0008150B000848
:2000A00085040008150B0008150B0008150B0008150B0008150B00080000000000000000E7
:2000C00010B5064C2378002B07D1054B002B02D0044800E000BF0123237010BD4C00002043
:2000E000000000005C1B0008044B10B5002B03D00349044800E000BF10BDC0460000000065
:20010000500000205C1B0008002243088B4274D303098B425FD3030A8B4244D3030B8B4298
:2001200028D3030C8B420DD3FF22090212BA030C8B4202D31212090265D0030B8B4219D334
:2001400000E0090AC30B8B4201D3CB03C01A5241830B8B4201D38B03C01A5241430B8B42BD
:2001600001D34B03C01A5241030B8B4201D30B03C01A5241C30A8B4201D3CB02C01A52411E
:20018000830A8B4201D38B02C01A5241430A8B4201D34B02C01A5241030A8B4201D30B02D4
:2001A000C01A5241CDD2C3098B4201D3CB01C01A524183098B4201D38B01C01A524143091B
:2001C0008B4201D34B01C01A524103098B4201D30B01C01A5241C3088B4201D3CB00C01A8E
:2001E000524183088B4201D38B00C01A524143088B4201D34B00C01A5241411A00D2014630
:20020000524110467047FFE701B5002000F006F802BDC0460029F7D076E770477047C0460E
:2002200010B50B480B4B036000230371013343710122524202612132426160328261036284
:2002400000F088FD002800D110BD00F0B1FBFBE7680000200030024082B0084B02689A4220
:2002600001D002B07047064A916B8020400101439163936B03400193019BF2E70030024023
:2002800000100240054B02689A4200D07047044A936B04490B409363F8E7C04600300240BE
:2002A00000100240FFEFFFFFF0B5CE46474680B591B01C22002109A801F048FC0024059442
:2002C000314D6B6B012633436B636B6B33400293029B80231B010393022399460493069658
:2002E0000796043398460893A027FF0503A9380001F038FB80235B0103934B460493059488
:20030000069607964346089303A9380001F02AFBEA6B8021C9030A43EA63EB6B0B400193F5
:20032000019B1A4BC62189005A58FF2082435A50802252041A600994154B0A930B940C94C1
:20034000A8230D930E940F94124C09A9200001F09DFB626880239B0413436360E3680E4A6C
:200360001340E360E3680D4A1340E36023680C4A1340236023680B4A1340236011B0C0BC05
:20038000B946B046F0BDC0460010024000E100E01A0610000058004001F8FFFFFF7FFFFF67
:2003A000FFFFF7FFFFFFFDFF094BDB689B070DD1074B5B680120002B09D1054B9868054B5D
:2003C0009C466044431E9841C0B200E0002070470030004001F0FFFFF8B5CE46474680B552
:2003E0001C4C200001F026FB23680122914693432360236807329046934323602368063AC7
:2004000093432360236802329343236023681027BB43236023688026B343236023682025AE
:20042000AB432360FFF740FF23684A4613432360236842461343236023683B43236023681F
:200440003343236023682B432360C0BCB946B046F8BDC0460058004010B5064B1C68064A79
:200460000649074800F0D2FCC043001B43425841C0B210BDFCF70008FCCF000000280008AF
:200480006800002010B54E4B9B691A0742D54C4AD16908200143D1619269D20332D5484964
:2004A0000A68063802430A60464A03211170444A1168802001431160116860380143116086
:2004C0009B0660D53E4AD36920210B43D3613D4B1B78DAB2032B48D0042A57D13A4B0022D5
:2004E0001A80384B01321A70354B1A688A431A605968802212020A435A601A6808210A4363
:200500001A6043E02E48026804210A4302602D4A1170CCE79A0703D5294A01219162CFE728
:200520005A0718D5284A128892B228498A4202D9254A00211180224A506A23490A8892B27C
:20054000C0B2234CA0540A88013292B20A801D4A04211170B4E71A4A9269D206B0D518496E
:20056000CA6910200243CA61AAE7154BD969982252000A43DA611A6808210A431A60114B13
:2005800000221A7002E0134B01221A800C4B9B69DB0507D50A4AD16980235B000B43D3618D
:2005A000FFF71AFF064B9B699B0507D5044AD16980239B000B43D361FFF70EFF10BDC0463D
:2005C00000580040A20800208C0000200708000098000020A0080020F0B5C64600B51E4CAE
:2005E000200001F027FA63681C4A1340636023680122934323602368073293432360184FF7
:2006000000243C60174E3268032313403360164B0122524280215A500131FF315A50134B42
:200620001C665C669C66DC66B36980256D002B43B36100F079FD8046B3692B43B3610C4864
:2006400000F0CAFB3C607C60BC6043460343D8B280BCB846F0BDC04600580040FFFFFFFD79
:2006600010E000E00000014000E100E0001802406800002070B5FFF7EFFE002828D0194B3A
:200680001B68194A134080229205934200D070BDFA25AD001524FFF79FFF002808D0013C40
:2006A000002CF8D100F0CAFA280000F083FAF1E70C4A0E4B9A600E4B19680E4B196019684E
:2006C0000D4B1960126882F308881B689847DEE7BFF34F8F054B094ADA60BFF34F8FC046A0
:2006E000FDE7C046002800080000FE2F00ED00E00428000890000020940000200400FA054B
:20070000F0B5DE4657464E464546E0B589B000230793734A53789078D17812791B06000440
:200720000343134309020B43190001936D4B994200D8CBE06A4B5A799B7912029B189BB251
:20074000002B00D1BAE0684B1B695B0306D596239B00664ACA50644B654A1A610024654EC5
:20076000654D06E000F0BAFB00280DD00134642C05D8FFF719FE0028F4D03560F2E700F03E
:2007800031FC00F05BFAF4E702230393019BF822120694466344DB0A0593012306930024A4
:2007A000544E554D0BE0322000F0ACFB07A903A800F03AFC002808D00134642C1ED8FFF7EF
:2007C000F3FD0028EFD03560EDE7019B190080221201944661448B4269D2019A08320023F0
:2007E00091425B415B42FF22134001330093082398463B4B99463F4B9B4627E000F0F2FBF5
:2008000000F01CFADBE75B4652461A60322000F079FB32002B003900012000F0ADFB002830
:200820000CD00134642C04D8FFF7BEFD0028EDD0E9E700F0D7FB00F001FAF5E7009B013B75
:20084000009308229446E044002B30D0019F083F47444B4642469E5C434601334A46D35CB1
:200860004246023249468A5C9446424603328C5C424604328D5C42460532885C42460632BE
:200880008A5C9246424607328A5C1B02614609040B431E43240626430002054353461904E0
:2008A0000D43120615430024134B9A46BCE700F099FB002811D1322000F024FB0023084811
:2008C00000210E4AC15401339342FBD109B0F0BCBB46B246A946A046F0BD00F0AFF9EAE76C
:2008E00098000020FF2700080020024023300000FBC3000000300040AAAA000008080000CB
:20090000F8B5234D234C244F32E000F04DF92B68984209D82378012B09D0FFF745FD002842
:20092000F3D01E4B3360F0E7FFF7A4FEF2E77F3380225204FA50BFF34F8FBFF36F8F154B1C
:2009400000221A70164B1B78DAB2062B12D0772A1AD080235B043B60124B196808200143E6
:20096000196019680122114319601A6802431A600D4ED2E700F018F90C4B9C466044044B0B
:200980001860FFF7BDFEE4E7FFF774FEE1E7C046A4080020A208002000E100E0AAAA000082
:2009A00098000020005800400030004020A1070010B572B600F042F9FCE700B593B0382262
:2009C000002104A801F0C2F810220021684601F0BDF88020800000F075FB0A230493F6338B
:2009E000079300230893402209923F3A0A920B9304A800F0F9FB00280DD107230093002379
:200A00000193029303930021684600F0D7FE002803D113B000BDFFF7CBFFFFF7C9FF000089
:200A200010B500F0A1F8FFF7C8FFFFF7F9FBFFF7BBFC002802D00B4B0B4A1A6062B600F0ED
:200A4000B3F8F530FF30094B1860FFF72DFC084B1A6801210A431A601A6807310A431A606D
:200A6000FFF74EFF00300040AAAA0000A40800200058004082B00A4B196C0122114319640B
:200A8000196C0A400092009ADA6B802149050A43DA63DB6B0B400193019B02B07047C0466D
:200AA0000010024010B500F0C9F8FCE710B500F0C5F8FCE77047704710B500F069F810BDE5
:200AC000704700000D488546FFF7FAFF0C480D490D4A002302E0D458C4500433C4188C4229
:200AE000F9D30A4A0A4C002301E013600432A242FBD301F007F8FFF793FFFEE70020002084
:200B0000000000204C000020D01B00084C000020C8080020FEE7000010B504000F4B197861
:200B20000120002900D110BDFA208000FFF7ECFA01000B4B1868FFF7E7FA00F08DF8030031
:200B40000120002BEFD1032CEDD800222100404200F042F8034B1C600020E4E704000020CD
:200B6000000000200800002010B5084A116880235B000B4313600320FFF7CEFF041E02D004
:200B80000124200010BDFFF775FFFAE700200240034A1168034B1B785B1813607047C0464C
:200BA000A808002004000020014B18687047C046A808002070B50400FFF7F6FF0500631C50
:200BC00002D0044B1B78E418FFF7EEFF401BA042FAD370BD0400002070B5002814DB84085F
:200BE000A400144B9C466444C026B600A55903221040C000FF231A008240954389010B40EE
:200C000083402B43A35170BD0F230340083B9B089B00094A94466344DC6903221040C0003E
:200C2000FC3215008540AC4389010A4082402243DA61E8E700E100E000ED00E0BFF34F8F9A
:200C4000034B044ADA60BFF34F8FC046FDE7C04600ED00E00400FA05013880235B04984259
:200C60000FD2094A50600948036A1B021B0AC02109060B430362002393600733136000200A
:200C800070470120FCE7C04610E000E000ED00E0F0B59708032A27D90C00002623781B0697
:200CA00065782D042B43E5782B43A5782D022B4305682B6001360434BE42EFD30123032AB9
:200CC00000D93B00032425001540144212D0012D0CD0022D11D19B00CA5C1202CB185B7881
:200CE00013430268138005E00023EBE79B005B5C0268137003681868F0BD032DFAD19B005A
:200D0000CC5C2402CB185A78224301680A809B7802681370EEE7F0B55708012A18D90C0077
:200D2000002523881B04668833430668336001350434BD42F5D30123012A00D93B00D207EE
:200D400003D59B005B5A0268138003681868F0BD0023F4E710B5041E39D0437F002B25D006
:200D6000022363772379002B24D12368194A5A612268936818218B4393606379002B22D196
:200D80002368012252421A612268936860218B4361690B4393602268936880218B43A169B9
:200DA0000B43936001236377002010BD0377FFF753FAD5E7E268A168200000F050F80028BB
:200DC000DBD00120F1E7236822691A61DCE70120EBE7C046B71DC10470B5041E14D0437F9C
:200DE000D8B2022B0FD0022363772268936801210B439360236800255D602000FFF742FAB7
:200E000065772577002070BD0120FCE770B50400022343770068836801252B438360236AAA
:200E2000022B18D0032B05D0012B10D000200123637770BD002A07D00B009200891822687A
:200E400001CB10608B42FAD123681868EFE72000FFF71EFFEBE72000FFF75DFFE7E7F0B5F3
:200E600007000120CB072BD51E231F26012534001C400800E040054209D1013BF7D2102AB4
:200E800027D0182A27D0002A11D0012018E0102A17D008D8002A0AD00120082A10D10F2B8B
:200EA00005D901200CE0182A0FD1062B0FD83B68596139688B68182083431A438A600020B7
:200EC000F0BD072BF3D90120FAE70120F8E70120F6E70120F4E70120F2E70000064B5B695C
:200EE0000020002B00DB7047034B044A9A60044A9A605869C00FF6E7002002402301674598
:200F0000AB89EFCDF8B50400FFF74EFE0700164E80256D0233692B4208D0631CFAD0FFF74F
:200F200043FEC01BA042F5D303201CE00E490A690E4B15001D400E4808611A420ED10E002F
:200F40008025ED0233692B420CD0631CFAD0FFF72BFEC01BA042F5D3032004E0054B5D6017
:200F6000012000E00020F8BD00200240FAC30000FBC30000AC080020F8B506000F00140014
:200F80001D00164B1B78012B26D0144B01221A7000225A60FA208000FFF7B4FF00280DD1ED
:200FA000012E0FD02100380000F0E6FDFA208000FFF7A8FF0A4A5369B3435361074B002292
:200FC0001A70F8BD064A536901210B4353613C60BFF36F8F7D60E9E70220F2E7AC080020DA
:200FE0000020024010B5FA208000FFF78BFF054B5969802212060A435A615869C043C00F49
:2010000010BDC04600200240044A5369C900044803401943034B1943516170470020024068
:2010200007E0FFFF02000100F8B505000E00224B1B78012B3ED0204B01221A7000225A60DA
:20104000FA208000FFF75EFF00282FD104236B602B68042B1AD001235B423360AC68EB6822
:20106000E3189C421DD2FA27BF0021006868FFF7CBFF3800FFF746FF002811D10134AB6852
:20108000EA6894466344A342EFD80AE00B4A51690B4B0B435361FA308000FFF733FF05E0C9
:2010A0003460064A536902218B435361024B00221A70F8BD0220FCE7AC0800200020024002
:2010C0000400010010B5020013490B681348034013430B6080239B0000209A4200D010BD3F
:2010E0000F4B1B685800C01840000E49FFF70CF80130094B5B695B050AD507498022D20006
:2011000001384B69134205D00028F9D10320E6E70020E4E70020E2E700700040FFF9FFFF5C
:201120000000002040420F00F8B5FFF73DFD0400284A116880235B000B43136016008025B8
:20114000ED0033682B4206D1FFF72EFD001B0228F7D90320F8BD1F4D8023DB016B60FFF709
:2011600023FD04000023AB602E0038251A4FB3681D4206D0FFF718FD001BB842F7D90320C6
:20118000E8E7144B802252001A601A60FFF70CFD0400104E8025AD0433682B4206D0FFF7AE
:2011A00003FD001B0228F7D90320D3E7094B80225201DA6000229A61013A1A62074B084A42
:2011C0001A60084B1868FFF7A7FC431E9841C0B2C0E7C046001002408813000000000020C3
:2011E0000024F40008000020F0B5CE46474680B583B0041E00D148E20368DB0738D5C84A78
:20120000916838230B40D268102B26D0082B27D063688022520293427BD0A022D20293424E
:201220007ED0BF4B1A68BF490A401A601A68BE490A401A606368002B7ED0FFF7B5FC0500CB
:20124000B74F8026B6023B68334211D1FFF7ACFC401B6428F7D9032018E2D2439307D7D167
:20126000AF4B1B689B0303D56368002B00D112E223689B072BD5AA4A916838230B40D268C6
:20128000102B69D0002B6CD1A54B1B685B0500D524E2A3494A6863691B02A44802401343B9
:2012A0004B609F4A1368A2490B4021690B43136013689B045B0F9F4ADA4013009E4A1360A9
:2012C0009E4B1868FFF728FC002800D0E5E123681B0700D48BE0924B9A6838231340182B11
:2012E0007DD0A369002B00D1C4E08D4A136E01210B431366FFF758FC0500894F02263B6EBC
:201300001E4274D1FFF750FC401B0228F7D90320BCE1834A116880235B020B43136089E75A
:201320007F4B19688022D2020A431A601968802252020A431A607DE7FFF736FC0500784F8F
:201340008026B6023B68334292D0FFF72DFC401B6428F7D9032099E10D3B1340022B00D1A9
:20136000ACE1E368002B24D06D4A136870490B4021690B431360116880235B000B431360BD
:20138000FFF712FC0500664F8026F6003B68334206D1FFF709FC401B0228F7D9032075E13B
:2013A0005F494A6863691B026048024013434B608DE75B4A136862490B401360FFF7F4FB1D
:2013C0000500574F8026F6003B68334200D17EE7FFF7EAFB401B0228F6D9032056E1504B54
:2013E0001B6E9B0703D5A369002B00D157E123685B0700D4ADE04A4B9A6838231340202BCC
:201400004CD0474BDB6B00229146DB000BD4444AD16B802040050143D163D36B03400193E9
:20142000019B01239946474B1B68DB053FD5A368012B52D0052B56D0394BDA6D01218A439B
:20144000DA65DA6D03318A43DA65A368002B54D0FFF7AAFB0600324B984602273A4D434637
:20146000DB6D1F4272D1FFF79FFB801BA842F6D903200BE12A4A136E01218B431366FFF739
:2014800093FB0500264F02263B6E1E42AFD0FFF78BFB401B0228F7D90320F7E0204BDB6D16
:2014A0009B0756D5A368002B53D10120EEE0254A116880235B000B431360FFF775FB060003
:2014C000204D80277F002B683B42B0D1FFF76CFB801B0228F7D90320D8E0114AD36D01215E
:2014E0000B43D365B1E70E4BDA6D04210A43DA65DA6D03390A43DA65A7E7FFF755FB060094
:20150000074B98460227104D4346DB6D1F421DD0FFF74AFB801BA842F6D90320B6E0C046A8
:2015200000100240FFFFFEFFFFFFFBFFFF80FFFFFFC7FFFF0024F4000000002008000020C5
:20154000FFFEFFFF00700040881300004B46012B21D0E3690020002B00D197E0664A91680F
:2015600038220A40102A66D0022B1AD0624A136862490B401360FFF717FB04005E4E802553
:20158000AD0433682B424FD0FFF70EFB001B0228F7D903207AE0584AD36B59490B40D363DF
:2015A000D7E7554A136855490B401360FFF7FCFA0500514F8026B6043B68334206D0FFF722
:2015C000F3FA401B0228F7D903205FE04A4AD168236A606A03434B4801400B43E16A0B4342
:2015E000216B0B43616B0B43A16A09020B43D360116880235B040B431360D16880235B05E8
:201600000B43D360FFF7D0FA04003B4E8025AD0433682B4206D1FFF7C7FA001B0228F7D9FB
:20162000032033E0002031E0334AD36836490B40D36000202AE0012B33D02F4BDA68032353
:2016400013400120216A8B4220D170231340616A8B421BD1FE21C9011140A36A1B02994224
:2016600014D1F8239B031340E16A8B420ED1E0231B051340216B8B4208D1500F4007636B66
:20168000C01A431E9841C0B200E0012003B0C0BCB946B046F0BD0120F8E70120F6E70120D3
:2016A000F4E70120F2E70120F0E713494A6863691B021648024013434B6001E60E4B1B6802
:2016C0005B05F2D5E368002BEDD00B494A6863691B020E48024013434B60F1E50120E368E6
:2016E000002BD3D004494A6863691B020748024013434B60D5E5C04600100240FFFFFFFE95
:20170000FFFFFFEF8C80C111FCFFFEEEFF80FFFF10B5274B9B6838221A4206D1244B1B68E2
:201720009B045B0F2348D84010BD214B9A6838231340082B37D01E4B9A6838231340102BA6
:2017400011D01B4B9A6838231340202B2DD0184B9B68382018401838434258414042FA2327
:20176000DB011840E0E7124AD368D1684906490F0131DB439B070ED00D4BD8684004440EF9
:201780000C48FEF7C1FC6043094BD968490F0131FEF7BAFCC8E7D0684004440E0648FEF716
:2017A000B3FC6043F0E70448BEE780200002BBE7001002400024F40000127A00F8B5CE4614
:2017C000474680B504000D00002800D1B6E05D4B1A68072313408B4221D323689A070ED530
:2017E0005B0705D5584A9168E023DB010B439360554A936855490B40A1680B43936023689A
:20180000DB075BD56368012B23D0022B42D0002B46D14D4A1268520520D4012070E0494AEB
:20182000136807218B432B431360FFF7BDF90600444B98460727464B994643461B683B4012
:20184000AB42CAD0FFF7B0F9801B4845F5D9032056E03D4A1268920300D471E03A498A68E3
:201860000720824313438B60FFF79EF90600364B98463827364B994643469A683A406368BA
:20188000DB009A421AD0FFF78FF9801B4845F3D9032035E02C4A12689201DFD401202FE097
:2018A000032B05D0284AD26D9207D7D4012027E0254A126E9207D1D4012021E0214B1A68CB
:2018C00007231340AB421FD823685B0706D51E4A936820490B40E1680B439360FFF718FF31
:2018E000194B9B681B051B0F9B001B4A9B581F221340D840194B1860194B1868FFF70CF9DD
:20190000C0BCB946B046F8BD0E4A136807218B432B431360FFF748F906000A4B9846072759
:201920000B4B994643461B683B40AB42CCD0FFF73BF9801B4845F5D90320E1E70120DFE770
:201940000120DDE70020024000100240FFF0FFFF88130000FF8FFFFF881B0008000000200F
:2019600008000020F0B5D6464F464646C0B50B68002B58D000220124A14620E0C3689846EB
:20198000230063435F00BC469C446546EF430D695D43AA4646466546AE43350056462E43F0
:2019A000C6604D68022D25D004684D686B4327403B43036001320B681C00D44033D04D46A5
:2019C00095401C002C402B42F4D04B68013B012BD4D88368250065436F007F19BB438E68FF
:2019E00075432B4383604368A343CD6865432B434360C3E7FF2C0AD8046A1D005D432E014E
:201A0000761BB4434E6975432C430462CCE7456A240A644364432601361BB5434E6974433E
:201A20002C434462C0E70020E0BCBA46B146A846F0BD00000300104A904204D00F4A01201F
:201A400093420CD070470E4BD96A802292030A43DA62DA6A0B490A40DA620020F2E7084B58
:201A6000D96A8022D2030A43DA62DA6A06490A40DA620020E6E7C0460054004000580040EB
:201A800000100240FFFFDFFFFFFFBFFF30B502680124A24302600268CB681B028D682B4384
:201AA000154D2A40134303604B6803610368234303608368114A1340836082680B698C6987
:201AC0002343D20AD202134383600B69002B04D0826880231B02134383600368084A134051
:201AE0000A68134303604368044A13404A6913434360002030BDC046FFE0FFFFFF7FFFFF57
:201B0000FFFFCFFF70B500260C4D0D4C641BA410A64209D1002600F021F80A4D0A4C641BAC
:201B2000A410A64205D170BDB300EB5898470136EEE7B300EB5898470136F2E7C81B000855
:201B4000C81B0008C81B0008CC1B000803008218934200D1704719700133F9E7F8B5C04676
:201B6000F8BC08BC9E467047F8B5C046F8BC08BC9E4670470000000001B40248844601BC06
:201B8000604700BF0D000020000000000000000000000000000000000000000000000000B2
:201BA00000000000000000000100000002000000030000000400000006000000070000000E
:201BC0000800000009000000E9000008C10000080024F400010000000400000010B50A004E
:201BE0000D494C698023DB0223434B61EFF3108C72B6511CFF311300821A1868D05004337F
:201C00008B42FAD10449802252020B691342FCD18CF3108810BDC04600200240FFFFFFFF0B
:201C2000FFFFFFFFFFFFFFFFFFFFFFFFFFFFFFFFFFFFFFFFFFFFFFFFFFFFFFFFFFFFFFFFC4
:201C4000FFFFFFFFFFFFFFFFFFFFFFFFFFFFFFFFFFFFFFFFFFFFFFFFFFFFFFFFFFFFFFFFA4
:201C6000FFFFFFFFFFFFFFFFFFFFFFFFFFFFFFFFFFFFFFFFFFFFFFFFFFFFFFFFFFFFFFFF84
:201C8000FFFFFFFFFFFFFFFFFFFFFFFFFFFFFFFFFFFFFFFFFFFFFFFFFFFFFFFFFFFFFFFF64
:2027E000FFFFFFFFFFFFFFFFFFFFFFFFFFFFFFFFFFFFFFFFFFFFFFFFFFFFFFFFFFFFFF01F7
:20280000002000205D3A00083D3A0008453A000800000000000000000000000000000000D3
:202820000000000000000000000000004D3A000800000000000000004F3A0008513A0008E5
:20284000AD3A0008AD3A0008AD3A0008AD3A0008AD3A0008AD3A0008AD3A0008AD3A000800
:2028600000000000AD3A0008AD3A0008AD3A0008AD3A0008AD3A0008AD3A0008AD3A0008CF
:20288000AD3A0008AD3A0008AD3A0008AD3A000800000000AD3A0008AD3A0008AD3A0008AF
:2028A0000D320008AD3A0008AD3A0008AD3A0008AD3A0008AD3A0008000000000000000026
:2028C00010B5064C2378002B07D1054B002B02D0044800E000BF0123237010BD4C0000201B
:2028E00000000000604B0008044B10B5002B03D00349044800E000BF10BDC0460000000009
:2029000050000020604B0008002243088B4274D303098B425FD3030A8B4244D3030B8B423C
:2029200028D3030C8B420DD3FF22090212BA030C8B4202D31212090265D0030B8B4219D30C
:2029400000E0090AC30B8B4201D3CB03C01A5241830B8B4201D38B03C01A5241430B8B4295
:2029600001D34B03C01A5241030B8B4201D30B03C01A5241C30A8B4201D3CB02C01A5241F6
:20298000830A8B4201D38B02C01A5241430A8B4201D34B02C01A5241030A8B4201D30B02AC
:2029A000C01A5241CDD2C3098B4201D3CB01C01A524183098B4201D38B01C01A52414309F3
:2029C0008B4201D34B01C01A524103098B4201D30B01C01A5241C3088B4201D3CB00C01A66
:2029E000524183088B4201D38B00C01A524143088B4201D34B00C01A5241411A00D2014608
:202A0000524110467047FFE701B5002000F0F0F802BDC0460029F7D076E7704703460B4322
:202A20007FD4002243088B4274D303098B425FD3030A8B4244D3030B8B4228D3030C8B4214
:202A40000DD3FF22090212BA030C8B4202D31212090265D0030B8B4219D300E0090AC30B01
:202A60008B4201D3CB03C01A5241830B8B4201D38B03C01A5241430B8B4201D34B03C01A39
:202A80005241030B8B4201D30B03C01A5241C30A8B4201D3CB02C01A5241830A8B4201D3A3
:202AA0008B02C01A5241430A8B4201D34B02C01A5241030A8B4201D30B02C01A5241CDD2AD
:202AC000C3098B4201D3CB01C01A524183098B4201D38B01C01A524143098B4201D34B01F1
:202AE000C01A524103098B4201D30B01C01A5241C3088B4201D3CB00C01A524183088B4247
:202B000001D38B00C01A524143088B4201D34B00C01A5241411A00D2014652411046704731
:202B20005DE0CA0F00D04942031000D34042534000229C4603098B422DD3030A8B4212D38D
:202B4000FC22890112BA030A8B420CD3890192118B4208D3890192118B4204D389013AD00E
:202B6000921100E08909C3098B4201D3CB01C01A524183098B4201D38B01C01A5241430928
:202B80008B4201D34B01C01A524103098B4201D30B01C01A5241C3088B4201D3CB00C01AA4
:202BA000524183088B4201D38B00C01A5241D9D243088B4201D34B00C01A5241411A00D2E2
:202BC0000146634652415B10104601D34042002B00D54942704763465B1000D3404201B5FA
:202BE000002000F005F802BD0029F8D016E770477047C046054B1A88054B00209A4204D194
:202C0000044B1888431E9841C0B2704700F8000855AA000002F80008044B1A88044B002001
:202C20009A4201D1034B18887047C04600F8000855AA000002F8000870B504000D00FFF70E
:202C4000D9FF002810D0FFF7E7FF031CA84200D92B1C98B2011E06D00023044D5A5DE254EF
:202C600001338B42FADB70BD0020FCE708F80008F0B5CE46474680B587B006000D00554BE1
:202C80000020994204D907B0C0BCB946B046F0BD00F0DCFF03000020002BF4D102330293DF
:202CA0001D3304931E3B05930023019301A902A801F072F800280ED0152401F04BF800283B
:202CC000E1D0013C002CF8D100F096FFFA20800000F03CFFF0E72B0C29043F4A0A433F492E
:202CE000012001F001F800283FD1EB08994634000027072D59D93A4B9B1B984662781202F7
:202D0000A3781B041A4323781A43E3781B061A432379617909020B43A17909040B43E179AD
:202D200009060B4341460919012000F0DDFF00282BD101370834B945E0DC00232848195C46
:202D4000F25C914234D10133AB42F8DB152401F001F800283CD0013C002CF8D100F04CFF95
:202D6000FA20800000F0F2FEF0E7152400F0F2FF002800D187E7013C002CF7D100F03CFF25
:202D8000FA20800000F0E2FEEFE7152400F0E2FF002800D177E7013C002CF7D100F02CFF46
:202DA000FA20800000F0D2FEEFE7002DCED0C4E7152400F0CFFF002800D164E7013C002CC9
:202DC000F7D100F019FFFA20800000F0BFFEEFE7013058E7FC07000055AA000000F8000894
:202DE00008F8000870B512484021FFF725FF002818D1104B08221A700D4B1A700E4A1278ED
:202E00005A7015241D0040212800FFF731FF00280CD1013C002CF6D1074A137801210B4362
:202E2000137003E0034B024A12781A7070BDC04644010020840100208C01002070B5144813
:202E40004021FFF7F9FE002818D0114B114A12781A70114A12785A7015241D0040212800BB
:202E6000FFF706FF002810D1013C002CF6D10A4A137801210B431370002007E0064A13786A
:202E800001210B431370002000E0012070BDC04644010020840100208C01002070B588B0D7
:202EA0001422002103A801F025FE164B5A6B012422435A635A6B22400192019A596B022252
:202EC000114359635B6B1A400292029BA026F60501223F21300001F09FF83F230393049405
:202EE00000250595069503A9300000F0A3FF1B2303930495059403A9034800F09BFF08B0CB
:202F000070BDC046001002400004005010B50400A02001221F21C00501F07EF8042C09D8AF
:202F2000A400134B1B599F46A02000220121C00501F072F810BDA02000220221C00501F08A
:202F40006BF8F7E7A02000220421C00501F064F8F0E7A02000220821C00501F05DF8E9E75A
:202F6000A02000221021C00501F056F8E2E7C046884B000870B5104D0121280001F046F895
:202F800004000221280001F041F80225002802D063425C41E5B20821074801F037F80028FE
:202FA00000D103251021044801F030F8002801D0280070BD0425FBE700040050F0B5CE461C
:202FC000474680B591B01C22002109A801F092FD00240594334D6B6B012633436B636B6B0A
:202FE00033400293029B80231B01039302239946049306960796043398460893A027FF0588
:2030000003A9380001F0A4FC80235B0103934B4604930594069607964346089303A93800A4
:2030200001F096FCEB6B8022D2031343EB63EB6B13400193019B1C4BC62189005A58FF201B
:2030400082435A50802252041A600994174B0A930B940C94164D2B785B000D930E940F946E
:20306000144C09A9200001F009FD626880239B0413436360E368104A1340E360E3680F4A23
:203080001340E36023680E4A1340236023680D4A13402360287800F017F811B0C0BCB9464E
:2030A000B046F0BD0010024000E100E01A061000840100200058004001F8FFFFFF7FFFFF7A
:2030C000FFFFF7FFFFFFFDFF4000C0B2014B18707047C046720000200A4B1A6801210A43E7
:2030E0001A601A6807310A431A601A6808310A431A601A6870310A431A601A6860390A4301
:203100001A607047005800400C4B1A6808218A431A601A6806398A431A601A6802318A4313
:203120001A601A680C318A431A601A6870318A431A601A6860398A431A60704700580040F4
:2031400010B5074C200001F06DFC2368012293432360FFF7D9FFFFF731FFFFF7BDFF10BD63
:203160000058004010B50C00402902D8002901D10DE0402400280AD0054B220001001800CA
:2031800001F0E4FC034B00221A80034B1C8010BD78000020700000206E0000200A4B1B88EF
:2031A0009BB23F2B02D9084B00221A80064A13889BB20649496AC9B20548C1541388013388
:2031C0009BB213807047C0467400002000580040B80000200A4B1B889BB23F2B02D9084B71
:2031E00000221A80064A13889BB20649CB5CDBB205498B62138801339BB213807047C04631
:2032000070000020780000200058004010B572B6624B9B691B072FD5604B9B69604A117848
:20322000C9B25B0C5B00FF22134099423CD05B4AD36908210B43D361584B9B69DB050AD504
:20324000564AD16980235B000B43D361FFF778FF544B00221A70514B9B699B050AD54F4AA4
:20326000D16980239B000B43D361FFF769FF4D4B00221A7062B610BD484B9B69DB0653D42E
:20328000464B9B699B0760D4444B9B695B075FD4424B9B699B065ED4404B9B69DB07CBD427
:2032A0003E4B01229A61C7E700F04AFC3E4B18603A4B9B69DB030FD43C4B00221A80374B73
:2032C000DA6908210A43DA611A6804390A431A60344B01221A70AFE7304B9B69DB031DD563
:2032E000334B00221A802D4AD36908210B43D3612E4B1B889BB2002B07D128490B680222C2
:2033000013430B60274B1A7096E7284C218889B2284800F081F800232380EEE71F4AD36902
:2033200008210B43D36187E71C4AD36910210B43D361214B00241C70A02001221031C0051A
:2033400000F06AFE174B1C7076E7FFF743FF73E7FFF724FF70E7114BDA6920210A43DA6160
:203360009B69DB0702D40D4B01229A61A02001222021C00500F050FE0C4B1B889BB2002B82
:2033800005D10A4B00221A80064B1A7054E7074B198889B2074800F03FF8F2E7005800401B
:2033A000720000206C000020680000207400002070000020B80000207800002010B50948BD
:2033C000094B036005234360084BC3608023DB00836000F027FE002800D110BD00F088F849
:2033E000FBE7C046F800002000300040FF0F000010B500F0A5FB10BD70B500F0B9FB05005F
:2034000000F0BCFB040000F0BFFB024B1D605C60986070BD3801002010B5040001291BD075
:2034200025D90378FD2B4CD0FF2B20D102291ED142780123C356002B19DD264B1B789342A9
:2034400015D0244B1A70244B1A780A431A701A7804210A431A700AE0037818002030C0B2E9
:203460000B2805D9D02B0BD02378FA2B0FD810BD0C21091A89B2194BC018FFF773FEF3E7E9
:203480001748CF3B03700121FFF76CFEECE7154B1A78134B1A70144A12785A7000229A7043
:2034A000124A1278D2B2DA700A4A12781A71207880214900091A89B2FB38C018FFF752FEBE
:2034C000D5E74378012BD2D1034A137801210B431370CCE784010020880100203801002081
:2034E000080100208C010020FF2700080000002010B572B600F080FBFCE700B593B038221B
:20350000002104A801F0F6FA10220021684601F0F1FA8020800000F0C7FD0A230493F6335F
:20352000079300230893402209923F3A0A920B9304A800F04BFE00280DD1072300930023B8
:203540000193029303930021684601F02DF9002803D113B000BDFFF7CBFFFFF7C9FF0000CC
:2035600010B500F0CDFA00281BD1FFF7C6FFFFF795FCFFF723FF0C4C200000F08DFDFFF779
:2035800031FC00F091F8FFF737FFFFF717FDFFF7A3FD200000F080FD044C200000F0ECF8E8
:2035A000FBE700F029FBE0E7F8000020F4010020F0B5D6464F464646C0B580231B051B6884
:2035C0002F4A134080229205934204D0E0BCBA46B146A846F0BD2B4B984601239A462A4F3E
:2035E00015239946404601F01DFA43461B685246934342461360FFF787FD00243C60234D07
:203600002A68032313402B60214B0122524280215A500131FF315A501E4B1C665C669C66EB
:20362000DC66AB69802676003343AB6100F06EFDAB691E43AE613C607C60BC6072B60028D3
:203640000DD001235B429C46E1444B46002BC9D100F0D2FAFA20800000F078FAC0E780226E
:2036600012050D4B9A600D4B19680D4B196019680C4B1960126882F308881B689847A5E779
:203680000000FE2F0058004010E000E00000014000E100E00018024000ED00E00400000860
:2036A0009401002090010020074A00231380074A1380074A1380074A1380074A1380074ABC
:2036C0001380074A13807047F4010020EC010020E4010020DC010020C4010020D4010020BE
:2036E000CC01002010B504000388262B09D02F2B05D0002B03D000230380032006E026233A
:203700002380094B1B7800205B0700D410BD064A137804218B43137072B6FFF78FFB62B6EB
:203720002F2323800120F1E78801002010B504000388372B09D0412B05D0002B03D0002301
:203740000380032006E0372323800A4B1B7800209B0700D410BD074A137802218B43137045
:2037600072B6FFF72BFCFFF7B7FC62B6412323800120EFE788010020F8B5CE46474680B519
:203780000488002C00D014E18D4D2E008D4B9846F9E0404600F080FCFFF72AFE884B58607A
:2037A00058221A80FFF724FE7368C01A0928F0D8854B1B886F2B60D04CD8002B4CD06A2BF2
:2037C00000D0BCE0FFF714FE7F4B5B68984221D07E4F3B789946FFF7CDFB7D4B4A469854BC
:2037E0003A789B5C002B42D17A4B9B5C002B00D090E0764B1A78784B00219954754B9954EA
:20380000724F387801300521FFF7EEF939706E4B8D221A807148FFF789FF7148FFF762FF11
:20382000704B1B88002B00D18DE022009E2B00D189E06C4B1A806C4B1B88492B00D19EE02E
:203840004E2B00D198E0002B00D195E0664B00221A8098E08D2B72D15C4B1878FFF756FBD7
:20386000FFF7C6FD584B58606A221A80AAE7FFF7BFFD554B58606F221A80FFF7B9FD524BFF
:203880005B689842C6D0514B1F78514BDB5D002B3AD0514BDB5D002B27D04C4B1A78534BFC
:2038A0004B49895C90001B185B18013B1978494B9954494B9B5C002BA2D000F041F9434B2B
:2038C0001A784B4B9100CB58C01AC8235B00984296D9404B9B5C412B12D03E4B9B5C3D2BEB
:2038E0008ED13C4B0D2199548AE700F029F9404BBF00D851384B354A127801219954CCE783
:20390000344B08219954E8E7334B0022DA55314BDA5575E72F4B9A5CD2B2364B1A701A78DC
:20392000D2B235490A701B78DBB24B70334B00221A80A0202021C00500F06EFB59E7224B2A
:2039400000221A8066E72E4B1B78002B01D19E226FE700F0F5F82B4B1B689842F7D9294B4B
:203960001B68C01AFA23DB009842F0D9FFF7E8FB234B00221A70EAE71B4B49221A80224BB3
:203980001B78DB070AD42B88002B00D104E7582B00D107E70A4B00221A8009E71A4A137808
:2039A00001218B431370FFF703FE0F4B4E221A80E9E700230380C0BCB946B046F8BDC04697
:2039C000CC010020F8000020D4010020C1010020BC01002098010020B4010020E40100209B
:2039E000C4010020DC010020EC0100209C4B0008A0010020C2010020780000207400002019
:203A00006C000020680000208801002082B00A4B196C012211431964196C0A400092009AEE
:203A2000DA6B802149050A43DA63DB6B0B400193019B02B07047C0460010024010B500F091
:203A4000DBF8FCE710B500F0D7F8FCE77047704710B500F069F810BD704700000D48854621
:203A6000FFF7FAFF0C480D490D4A002302E0D458C4500433C4188C42F9D30A4A0A4C002397
:203A800001E013600432A242FBD301F03BF8FFF767FDFEE700200020000000204C000020BB
:203AA000F84B00084C0000201C020020FEE7000070B504000F4B19780120002900D170BDD0
:203AC0000D4DFA208000FEF71FFF01002868FEF71BFF00F09FF803000120002BEFD1032C7A
:203AE000EDD800222100404200F054F8034B1C600020E4E708000020040000200C000020D3
:203B000010B5084A116880235B000B4313600320FFF7CEFF041E02D00124200010BDFFF774
:203B200075FFFAE700200240034A1168034B1B785B1813607047C046FC010020080000203F
:203B4000014B18687047C046FC01002070B50400FFF7F6FF0500631C02D0044B1B78E41877
:203B6000FFF7EEFF401BA042FAD370BD08000020014B18687047C0469075FF1F014B18688B
:203B80007047C0469475FF1F014B18687047C0469875FF1F70B5002814DB8408A400144BC2
:203BA0009C466444C026B600A55903220240D200FF2318009040854389010B4093402B43C0
:203BC000A35170BD0F230340083B9B089B00094A94466344DC6903221040C000FC3215003D
:203BE0008540AC4389010A4082402243DA61E8E700E100E000ED00E0BFF34F8F034B044A52
:203C0000DA60BFF34F8FC046FDE7C04600ED00E00400FA05013880235B0498420FD2094AD1
:203C200050600948036A1B021B0AC02109060B430362002393600733136000207047012076
:203C4000FCE7C04610E000E000ED00E0064B5B690020002B00DB7047034B044A9A60044A08
:203C60009A605869C00FF6E70020024023016745AB89EFCDF8B50400FFF762FF0700164E48
:203C800080256D0233692B4208D0631CFAD0FFF757FFC01BA042F5D303201CE00E490A692C
:203CA0000E4B15001D400E4808611A420ED10E008025ED0233692B420CD0631CFAD0FFF779
:203CC0003FFFC01BA042F5D3032004E0054B5D60012000E00020F8BD00200240FAC3000018
:203CE000FBC3000000020020F8B506000F0014001D00164B1B78012B26D0144B01221A70CF
:203D000000225A60FA208000FFF7B4FF00280DD1012E0FD02100380000F02EFFFA20800060
:203D2000FFF7A8FF0A4A5369B3435361074B00221A70F8BD064A536901210B4353613C60AD
:203D4000BFF36F8F7D60E9E70220F2E7000200200020024010B5FA208000FFF78BFF054B58
:203D60005969802212060A435A615869C043C00F10BDC04600200240044A5369C9000448D8
:203D800003401943034B0B43536170470020024007E0FFFF02000100F8B504000E00224B07
:203DA0001B78012B3DD0204B01221A7000225A60FA208000FFF75EFF00282ED10423636045
:203DC0002368042B19D001235B423360A568E368EB189D421CD2FA27BF0060682900FFF7FD
:203DE000CBFF3800FFF746FF002810D10135A368E2689B18AB42F0D80AE00C4A51690C4B39
:203E00000B435361FA308000FFF734FF05E03560064A536902218B435361034B00221A70A8
:203E2000F8BD0220FCE7C046000200200020024004000100F0B5DE4657464E464546E0B51F
:203E400083B00F68002F00D1D1E0002200230124A0460234694DAB4652E0876825009540BF
:203E6000AF43B946CF6897404D462F4387604768B7434E68360945462E409E403E434660BB
:203E80004AE000265546AE404D462E433E665D462D68AA466546ED4301954D688026760334
:203EA000354200D094E05646019D2E405D462E606D68AA464D688026B603354200D08BE0E3
:203EC0005646019D2E405D466E608426AE594D68AD0300D584E0019D2E4084255F467E5151
:203EE0008026BE594D68ED037DD4019D2E4080275D46EE5101330F6802323E00DE4076D0F9
:203F000046469E403D003540AC463742F2D04F682740013F012FA0D94E682640032E22D012
:203F2000C76826009640B7438E6896403E43C6604E682640022E16D1DE08B60085190195E6
:203F40002D6AAA4607271F40BF000F25BD40A94655464E46B543AA460D69BD402F0055461A
:203F60002F43019D2F62076826009640B7434E68264096403E4306604E68C025AD022E42A8
:203F8000B8D09F08BF001D4DA9464F443D6E019525001D40ED00AA460F255646B540019E43
:203FA000AE43B146A025ED05A84200D169E7144EB04209D0134EB04208D0134D4619751EAD
:203FC000AE41760003365DE701265BE7022659E7654656462E4369E7654656462E4372E715
:203FE00065462E4379E7654635432E007FE703B0F0BCBB46B246A946A046F0BD001802405A
:20400000000400500008005000F4FFAF00690840431E9841C0B27047002A01D081617047AA
:204020008162FCE770B5041E2ED00368174A1A600368174A1A60036842685A6003688268C5
:204040009A60FFF77DFD06002368DA68520710D0072503E02368DA6815420AD0FFF770FD7A
:20406000801B3128F6D92368DB681D42F2D003200BE01969E268914202D01A61002004E090
:20408000044A1A60002000E0012070BDCCCC000055550000AAAA00000368024A1A60002023
:2040A0007047C046AAAA000010B5020013490B681348034013430B6080239B0000209A42C0
:2040C00000D010BD0F4B1B685800C01840000E49FEF71AFC0130094B5B695B050AD50749BC
:2040E0008022D20001384B69134205D00028F9D10320E6E70020E4E70020E2E700700040CF
:20410000FFF9FFFF0400002040420F00F8B5FFF717FD0400284A116880235B000B4313608F
:2041200016008025ED0033682B4206D1FFF708FD001B0228F7D90320F8BD1F4D8023DB0125
:204140006B60FFF7FDFC04000023AB602E0038251A4FB3681D4206D0FFF7F2FC001BB84236
:20416000F7D90320E8E7144B802252001A601A60FFF7E6FC0400104E8025AD0433682B429E
:2041800006D0FFF7DDFC001B0228F7D90320D3E7094B80225201DA6000229A61013A1A6231
:2041A000074B084A1A60084B1868FFF781FC431E9841C0B2C0E7C046001002408813000055
:2041C000040000200024F4000C000020F0B5CE46474680B583B0041E00D146E20368DB0761
:2041E00038D5C74A916838230B40D268102B26D0082B27D063688022520293427AD0A022CB
:20420000D20293427DD0BE4B1A68BE490A401A601A68BD490A401A606368002B7DD0FFF7CD
:204220008FFC0500B64F8026B6023B68334211D1FFF786FC401B6428F7D9032016E2D24332
:204240009207D7D1AE4B1B689B0303D56368002B00D110E223689B072AD5A94A91683823FF
:204260000B40D268102B68D0002B6BD1A44B1B685B0500D522E2A2494A6863691B02A348C3
:20428000024013434B609E4A1368A1490B4021690B43136013689F499B045B0F9E4ADA408A
:2042A0000A609E4B1868FFF703FC002800D0E4E123681B0700D48BE0914B9A683823134001
:2042C000182B7DD0A369002B00D1C4E08C4A136E01210B431366FFF733FC0500884F022639
:2042E0003B6E1E4274D1FFF72BFC401B0228F7D90320BBE1824A116880235B020B43136039
:204300008AE77F4B19688022D2020A431A601968802252020A431A607EE7FFF711FC0500F9
:20432000774F8026B6023B68334293D0FFF708FC401B6428F7D9032098E10D3B1340022BC9
:2043400000D1ABE1E368002B24D06D4A136870490B4021690B431360116880235B000B4350
:204360001360FFF7EDFB0500654F8026F6003B68334206D1FFF7E4FB401B0228F7D903205B
:2043800074E15F494A6863691B026048024013434B608DE75A4A136861490B401360FFF7A9
:2043A000CFFB0500564F8026F6003B68334200D17EE7FFF7C5FB401B0228F6D9032055E13C
:2043C0004F4B1B6E9B0703D5A369002B00D156E123685B0700D4ACE0494B9A683823134070
:2043E000202B4CD0464BDB6B00229146DB000BD4434BDA6B802149050A43DA63DB6B0B40EF
:204400000193019B01239946464B1B68DB053FD5A368012B52D0052B56D0394BDA6D0121C5
:204420008A43DA65DA6D03318A43DA65A368002B54D0FFF785FB0600314B984602273A4D09
:204440004346DB6D1F4271D1FFF77AFB801BA842F6D903200AE12A4A136E01218B431366BD
:20446000FFF76EFB0500264F02263B6E1E42AFD0FFF766FB401B0228F7D90320F6E0204BA3
:20448000DB6D9B0755D5A368002B52D10120EDE0244A116880235B000B431360FFF750FBDA
:2044A0000600204D80277F002B683B42B0D1FFF747FB801B0228F7D90320D7E0104AD36D91
:2044C00001210B43D365B1E70D4BDA6D04210A43DA65DA6D03390A43DA65A7E7FFF730FB8E
:2044E0000600074B984602270F4D4346DB6D1F421CD0FFF725FB801BA842F6D90320B5E0C1
:2045000000100240FFFFFEFFFFFFFBFFFF80FFFFFFC7FFFF040000200024F4000C000020AD
:20452000FFFEFFFF00700040881300004B46012B21D0E3690020002B00D197E0664A9168FF
:2045400038220A40102A66D0022B1AD0624A136862490B401360FFF7F3FA04005E4E802568
:20456000AD0433682B424FD0FFF7EAFA001B0228F7D903207AE0584AD36B59490B40D363F4
:20458000D7E7554A136855490B401360FFF7D8FA0500514F8026B6043B68334206D0FFF736
:2045A000CFFA401B0228F7D903205FE04A4AD168236A606A03434B4801400B43E16A0B4356
:2045C000216B0B43616B0B43A16A09020B43D360116880235B040B431360D16880235B05D8
:2045E0000B43D360FFF7ACFA04003B4E8025AD0433682B4206D1FFF7A3FA001B0228F7D934
:20460000032033E0002031E0334AD36836490B40D36000202AE0012B33D02F4BDA68032343
:204620001340216A01208B4220D170231340616A8B421BD1FE21C9011140A36A1B02994214
:2046400014D1F8239B031340E16A8B420ED1E0231B051340216B8B4208D1530F5B07626B39
:204660009B1A5A1E9341D8B200E0012003B0C0BCB946B046F0BD0120F8E70120F6E70120BE
:20468000F4E70120F2E70120F0E713494A6863691B021648024013434B6002E60E4B1B68F1
:2046A0005B05F2D5E368002BEDD00B494A6863691B020E48024013434B60F2E5E3680120D5
:2046C000002BD3D004494A6863691B020748024013434B60D7E5C04600100240FFFFFFFE83
:2046E000FFFFFFEF8C80C111FCFFFEEEFF80FFFF10B5294B9B6838221A4206D1264B1B68CF
:204700009B045B0F2548D84010BD234B9A6838231340082B3AD0204B9A6838231340102B8D
:2047200014D01D4B9A6838231340202B30D01A4B9B68382018401838431E98414042184BAB
:204740001840FA23DB019C466044DDE7124AD368D1684906490F0131DB439B070ED00E4B1E
:20476000DC686404640E0D48FEF7CEF860430A4BD968490F0131FEF7C7F8C5E7D468640444
:20478000640E0848FEF7C0F86043F0E70548BBE780200002B8E7C046001002400024F40090
:2047A0000083FFFF00127A00F8B5CE46474680B504000D00002800D1B6E05D4B1A68072375
:2047C00013408B4221D323689A070ED55B0705D5584A9168E023DB010B439360554A936825
:2047E00055490B40A1680B4393602368DB075BD56368012B23D0022B42D0002B46D14D4AE7
:204800001268520520D4012070E0494A136807218B432B431360FFF793F90600444B984688
:204820000727464B994643461B683B40AB42CAD0FFF786F9801B4845F5D9032056E03D4A81
:204840001268920300D471E03A498A680720824313438B60FFF774F90600364B984638275B
:20486000364B994643469A683A406368DB009A421AD0FFF765F9801B4845F3D9032035E0E7
:204880002C4A12689201DFD401202FE0032B05D0284AD26D9207D7D4012027E0254A126EA3
:2048A0009207D1D4012021E0214B1A6807231340AB421FD823685B0706D51E4A93682049B5
:2048C0000B40E1680B439360FFF712FF194B9B681C491D4A1B051B0F9B009B581F2213405D
:2048E000D8400860194B1868FFF7E2F8C0BCB946B046F8BD0E4A136807218B432B431360B4
:20490000FFF71EF906000A4B984607270B4B994643461B683B40AB42CCD0FFF711F9801B43
:204920004845F5D90320E1E70120DFE70120DDE70020024000100240FFF0FFFF8813000029
:20494000FF8FFFFF04000020B04B00080C000020F0B5D6464F464646C0B50B68002B5AD059
:2049600000220124A14620E0C3689846270067437B009C46BC446346DE430B697B439A46F6
:20498000454663469D432B0055461D43C5604B68022B25D004684B687B43344023430360C9
:2049A00001320B681C00D44035D04E4696401C0034403342F4D04B68013B012BD4D8836837
:2049C000270067437E00F619B3438E687E43334383604368A343CE68664333434360C3E740
:2049E000FF2C0CD8036A3C007C43A44624016546641BA3434C696C4323430362CAE7436A94
:204A0000240A6443644325012D1BAB434D696C4323434362BEE70020E0BCBA46B146A84608
:204A2000F0BD00000300104A904204D00F4A012093420CD070470E4BD96A802292030A43C4
:204A4000DA62DA6A0B490A40DA620020F2E7084BD96A8022D2030A43DA62DA6A06490A4090
:204A6000DA620020E6E7C046005400400058004000100240FFFFDFFFFFFFBFFF30B50368A1
:204A80000124A34303600268CB681B028D682B43154D2A40134303604B680361036823431E
:204AA00003608368114A1340836082680B698C692343D20AD202134383600B69002B04D002
:204AC000826880231B02134383600368084A13400A68134303604368044A13404A69134363
:204AE0004360002030BDC046FFE0FFFFFF7FFFFFFFFFCFFF03008218934200D17047197058
:204B00000133F9E770B500260C4C0D4D641BA410A64209D1002600F023F80A4C0A4D641B32
:204B2000A410A64205D170BDB300EB5898470136EEE7B300EB5898470136F2E7F04B0008CD
:204B4000F04B0008F44B0008F04B0008002310B59A4200D110BDCC5CC4540133F8E70000D3
:204B6000F8B5C046F8BC08BC9E467047F8B5C046F8BC08BC9E46704701B40248844601BC23
:204B8000604700BF11000020282F0008362F0008442F0008522F0008602F0008414D252F35
:204BA0003738392A3435362D3132332B2E30603D000000000000000000000000000000009B
:204BC0000000000000000000000000000000000001000000020000000300000004000000CB
:204BE00006000000070000000800000009000000E9280008C1280008030000000024F40072
:204C0000010000000400000030B50D4A54698023DB0223435361EFF3108572B64C1CFF34C2
:204C20000B00411A1A68CA500433A342FAD10449802252020B691342FCD185F3108830BDB5
:204C400000200240FFFFFFFFFFFFFFFFFFFFFFFFFFFFFFFFFFFFFFFFFFFFFFFFFFFFFFFF0E
:204C6000FFFFFFFFFFFFFFFFFFFFFFFFFFFFFFFFFFFFFFFFFFFFFFFFFFFFFFFFFFFFFFFF54
:204C8000FFFFFFFFFFFFFFFFFFFFFFFFFFFFFFFFFFFFFFFFFFFFFFFFFFFFFFFFFFFFFFFF34
:204CA000FFFFFFFFFFFFFFFFFFFFFFFFFFFFFFFFFFFFFFFFFFFFFFFFFFFFFFFFFFFFFFFF14
:204CC000FFFFFFFFFFFFFFFFFFFFFFFFFFFFFFFFFFFFFFFFFFFFFFFFFFFFFFFFFFFFFFFFF4
:20F7E000FFFFFFFFFFFFFFFFFFFFFFFFFFFFFFFFFFFFFFFFFFFFFFFFFFFFFFFF5CA5AF1362
:20F80000FFFFFFFFFFFFFFFFFFFFFFFFFFFFFFFFFFFFFFFFFFFFFFFFFFFFFFFFFFFFFFFF08
:20F82000FFFFFFFFFFFFFFFFFFFFFFFFFFFFFFFFFFFFFFFFFFFFFFFFFFFFFFFFFFFFFFFFE8
:20F84000FFFFFFFFFFFFFFFFFFFFFFFFFFFFFFFFFFFFFFFFFFFFFFFFFFFFFFFFFFFFFFFFC8
:20F86000FFFFFFFFFFFFFFFFFFFFFFFFFFFFFFFFFFFFFFFFFFFFFFFFFFFFFFFFFFFFFFFFA8
:00000001FF
